S01000006177735F74657374732E73333707
S113000000000820F5020000410300004103000045
S113001041030000410300004103000041030000CC
S113002041030000410300004103000041030000BC
S113003041030000410300004103000041030000AC
S11300404103000041030000312E00004103000081
S113005041030000410300001D2C00004103000087
S1130060410300004103000041030000410300007C
S1130070410300004103000041030000410300006C
S1130080410300004103000041030000410300005C
S1130090410300004103000041030000410300004C
S11300A0410300004103000041030000410300003C
S11300B04103000041030000410300003D30000003
S11300C0410300004103000041030000410300001C
S11300D0410300004103000041030000410300000C
S11300E041030000410300004103000041030000FC
S11300F041030000410300004103000041030000EC
S113010041030000410300004103000041030000DB
S113011041030000410300004103000041030000CB
S113012041030000410300004103000041030000BB
S113013041030000410300004103000041030000AB
S1130140410300004103000041030000410300009B
S113015010B5054C237833B9044B13B10448AFF3FD
S113016000800123237010BD8800002000000000DF
S1130170FC5C000008B5034B1BB103490348AFF313
S1130180008008BD000000008C000020FC5C000022
S1130190154B002B08BF134B9D46A3F5803A002155
S11301A08B460F461348144A121A04F076FE0F4B7E
S11301B0002B00D098470E4B002B00D0984700200E
S11301C0002104000D000D48002802D00C48AFF3B4
S11301D0008004F02BFE2000290000F013F804F046
S11301E097FC00BF00000800000008200000000089
S11301F0000000008800002080150020000000009E
S11302000000000080B500AF00F00BF80F220021C1
S11302104FF4006002F04CFB01F074F9002318461F
S113022080BD80B400AF00BFBD465DF8047B70475D
S113023080B400AF00BFBD465DF8047B704700008A
S113024080B485B000AFF860B9607A60FB68074A93
S11302501A60BB68064A1A607B684FF480721A60A1
S113026000BF1437BD465DF8047B7047A40000202E
S11302701001002080B485B000AFF860B9607A60E6
S1130280FB68074A1A60BB68064A1A607B684FF429
S113029000721A6000BF1437BD465DF8047B7047D6
S11302A0100500207C05002080B400AF00BFBD46CF
S11302B05DF8047B7047000080B582B000AF41F266
S11302C088337B6001F026FA3860084B1B683A6873
S11302D0D31A7A689A4205D2054802F041FB034AD0
S11302E03B68136000BF0837BD4680BD7C0D00200D
S11302F0E45B000080B584B000AF00F089F80D4BDA
S1130300FB600D4BBB600C4B7B600C4B3B600AE00D
S1130310FA68131DFB60BB68191DB96012681A6086
S11303207B6804337B607A683B689A42F0D3FFF7BA
S11303302FFF00BF085D000000000020880000209F
S113034080B400AFFEE7000080B582B000AF00F0DB
S11303501BF878600A4BD3F808311B0AC3F308036F
S11303603B603B6801337A68B2FBF3F37B60054A78
S11303707B6813607B6818460837BD4680BD00BFA4
S113038000400E400800002080B483B000AF164B3C
S1130390D3F8943003F00703032B08D0042B02D0C6
S11303A0022B08D00BE0114B1B687B600BE04FF471
S11303B000437B6007E00E4B1B687B6003E00D4B42
S11303C01B687B6000BF084BD3F800311B0A03F0A5
S11303D01F0301337A68B2FBF3F318460C37BD46AA
S11303E05DF8047B704700BF00400E40040000200D
S11303F0000000200C00002080B400AF034B1B68F9
S11304001846BD465DF8047B704700BF000000201D
S113041080B400AF074B084A9A60064BD3F8883083
S1130420044A43F47003C2F8883000BFBD465DF847
S1130430047B704700ED00E00000000080B400AFD2
S11304404FF400431846BD465DF8047B704780B402
S113045000AF4FF47A731846BD465DF8047B7047CD
S113046080B400AF034B1B681846BD465DF8047B9F
S1130470704700BF0400002080B586B000AF7860EC
S11304800023FB60444B1B68002B03D1012143482C
S113049005F0A8F801F098F8414B1A687B681340FE
S11304A0002B6DD17B68002B0DD008227B68134490
S11304B07B607B6803F00703002B04D07B6823F088
S11304C0070308337B607B68002B59D0354B1B68CE
S11304D07A689A4254D8344B3B61334B1B687B6136
S11304E004E07B693B617B691B687B617B695B68BA
S11304F07A689A4203D97B691B68002BF1D1264B99
S11305001B687A699A423BD03B691B6808221344F2
S1130510FB607B691A683B691A607B695A687B686F
S1130520D21A08235B009A420FD97A697B68134474
S1130530BB607B695A687B68D21ABB685A607B6966
S11305407A685A60B86800F081F8164B1A687B69BB
S11305505B68D31A134A1360124B1A68134B1B6857
S11305609A4203D20F4B1B68104A13607B695A6886
S11305700B4B1B681A437B695A607B6900221A6023
S113058001F030F8FB68002B01D1FFF78DFEFB680A
S113059018461837BD4680BD880D00202015002060
S11305A0940D00208C0D0020800D0020900D002063
S11305B080B584B000AF78607B68FB607B68002BFB
S11305C03AD008235B42FA681344FB60FB68BB60C3
S11305D0BB685A681A4B1B681340002B03D10121D6
S11305E0184804F0FFFFBB681B68002B03D00121EF
S11305F0144804F0F7FFBB685A68114B1B6813409A
S1130600002B19D0BB681B68002B15D1BB685A6836
S11306100B4B1B68DB431A40BB685A6000F0D4FFE5
S1130620BB685A68084B1B681344074A1360B868D0
S113063000F00CF800F0D6FF00BF1037BD4680BDB7
S1130640940D0020201500208C0D002080B485B06E
S113065000AF7860284BFB6002E0FB681B68FB601E
S1130660FB681B687A689A42F7D8FB68BB60FB6832
S11306705B68BA6813447A689A4208D1FB685A687E
S11306807B685B681A44FB685A60FB687B607B6824
S1130690BB607B685B68BA681A44FB681B689A4253
S11306A018D1FB681A68154B1B689A420DD07B68F9
S11306B05A68FB681B685B681A447B685A60FB686D
S11306C01B681A687B681A6008E00C4B1A687B6820
S11306D01A6003E0FB681A687B681A60FA687B6832
S11306E09A4202D0FB687A681A6000BF1437BD468C
S11306F05DF8047B704700BF800D0020880D00204A
S113070080B483B000AF78607B6803F108027B6833
S11307105A607B684FF0FF329A607B6803F10802ED
S11307207B68DA607B6803F108027B681A617B6886
S113073000221A6000BF0C37BD465DF8047B704789
S113074080B483B000AF78607B6800221A6100BF78
S11307500C37BD465DF8047B704780B485B000AFAC
S1130760786039607B685B68FB603B68FA685A6054
S1130770FB689A683B689A60FB689B683A685A60B1
S1130780FB683A689A603B687A681A617B681B6800
S11307905A1C7B681A6000BF1437BD465DF8047BA1
S11307A0704780B485B000AF786039603B681B68DF
S11307B0BB60BB68B3F1FF3F03D17B681B69FB607F
S11307C00CE07B680833FB6002E0FB685B68FB605D
S11307D0FB685B681B68BA689A42F6D2FB685A6881
S11307E03B685A603B685B683A689A603B68FA68A1
S11307F09A60FB683A685A603B687A681A617B6859
S11308001B685A1C7B681A6000BF1437BD465DF82C
S1130810047B704780B485B000AF78607B681B6947
S1130820FB607B685B687A6892689A607B689B6807
S11308307A6852685A60FB685B687A689A4203D1A6
S11308407B689A68FB685A607B6800221A61FB68BF
S11308501B685A1EFB681A60FB681B68184614372D
S1130860BD465DF8047B704780B584B000AF786006
S113087039607B68FB60FB68002B03D101212A48A7
S113088004F0B0FE01F074FFFB681A68FB68DB6BD0
S1130890F968096C01FB03F31A44FB689A60FB686E
S11308A000229A63FB681A68FB685A60FB681A683E
S11308B0FB68DB6B013BF968096C01FB03F31A4429
S11308C0FB68DA60FB68FF2283F84420FB68FF22A0
S11308D083F845203B68002B14D1FB681B69002B6F
S11308E01AD0FB681033184601F072F80346002B47
S11308F012D00E4B4FF080521A60BFF34F8FBFF3EC
S11309006F8F09E0FB6810331846FFF7F9FEFB68A8
S113091024331846FFF7F4FE01F052FF0123184672
S11309201037BD4680BD00BF2015002004ED00E057
S113093080B588B002AFF860B9607A603B60FB684C
S1130940002B03D10121254804F04CFE3B68002B09
S113095003D10121214804F045FE7B68002B02D01D
S1130960BB68002B01D0012300E00023002B03D13E
S113097001211A4804F036FE7B68002B02D1BB68C3
S1130980002B01D1012300E00023002B03D101211E
S1130990124804F027FE50233B613B69502B03D0DF
S11309A001210E4804F01EFE3B693B687B617B69B4
S11309B0002B0DD07B69012283F8462097F8202074
S11309C07B69009313467A68B968F86800F044F8C4
S11309D07B6918461837BD4680BD00BF201500202E
S11309E080B58AB002AFF860B9601346FB71FB684A
S11309F0002B03D10121174804F0F4FDBB68002B40
S1130A0002D10023FB6104E0FB68BA6802FB03F334
S1130A10FB61FB6950331846FFF72EFDB861BB69D3
S1130A20002B11D0BB697B617B6950337B61BB694F
S1130A30002283F84620FA79BB69009313467A6949
S1130A40B968F86800F008F8BB6918462037BD4655
S1130A5080BD00BF2015002080B584B000AFF860D1
S1130A60B9607A60FB70BB68002B03D1BB69BA69BB
S1130A701A6002E0BB697A681A60BB69FA68DA63D3
S1130A80BB69BA681A640121B869FFF7EDFEBB6956
S1130A90FA7883F84C2000BF1037BD4680BD0000B3
S1130AA080B58AB000AFF860B9607A603B6000231B
S1130AB07B62FB683B623B6A002B03D101216848DF
S1130AC004F090FDBB68002B03D13B6A1B6C002B28
S1130AD001D1012300E00023002B03D10121604850
S1130AE004F080FD3B68022B03D13B6ADB6B012BD6
S1130AF001D1012300E00023002B03D10121584838
S1130B0004F070FD01F01AF90346002B02D17B6852
S1130B10002B01D1012300E00023002B03D101218C
S1130B204F4804F05FFD01F023FE3B6A9A6B3B6A79
S1130B30DB6B9A4202D33B68022B29D13A68B9682D
S1130B40386A00F0FDF9F8613B6A5B6A002B10D04B
S1130B503B6A2433184600F03BFF0346002B13D0B6
S1130B60404B4FF080521A60BFF34F8FBFF36F8F2B
S1130B700AE0FB69002B07D03A4B4FF080521A6011
S1130B80BFF34F8FBFF36F8F01F01AFE012363E0B1
S1130B907B68002B03D101F013FE00235CE07B6A29
S1130BA0002B06D107F11403184600F06FFF012350
S1130BB07B6201F005FE00F007FD01F0D9FD3B6A00
S1130BC093F844305BB2B3F1FF3F03D13B6A002298
S1130BD083F844203B6A93F845305BB2B3F1FF3F9E
S1130BE003D13B6A002283F8452001F0E9FD3A1D58
S1130BF007F114031146184600F05EFF0346002B6C
S1130C0024D1386A00F094FA0346002B18D03B6ACA
S1130C1010337A681146184600F094FE386A00F0E2
S1130C201FFA00F0DFFC0346002B7FF47CAF0D4B72
S1130C304FF080521A60BFF34F8FBFF36F8F72E78C
S1130C40386A00F00DFA00F0CDFC6CE7386A00F069
S1130C5007FA00F0C7FC002318462837BD4680BDBC
S1130C602015002004ED00E080B58CB000AFF860E2
S1130C70B9607A603B60FB68BB62BB6A002B03D13E
S1130C8001213A4804F0AEFCBB68002B03D1BB6AD7
S1130C901B6C002B01D1012300E00023002B03D1A6
S1130CA00121324804F09EFC3B68022B03D1BB6A4D
S1130CB0DB6B012B01D1012300E00023002B03D1C6
S1130CC001212A4804F08EFC01F0C0FDEFF31182EB
S1130CD04FF0200383F31188BFF36F8FBFF34F8F5F
S1130CE0FA61BB61FB697B62BB6A9A6BBB6ADB6BB3
S1130CF09A4202D33B68022B2CD1BB6A93F845304D
S1130D0087F823303A68B968B86A00F019F997F996
S1130D102330B3F1FF3F12D1BB6A5B6A002B16D0BC
S1130D20BB6A2433184600F053FE0346002B0ED052
S1130D307B68002B0BD07B6801221A6007E097F8D0
S1130D4023300133DBB25AB2BB6A83F84520012356
S1130D50FB6201E00023FB627B6A7B617B6983F3B6
S1130D601188FB6A18463037BD4680BD2015002027
S1130D7080B58AB000AFF860B9607A6000237B6206
S1130D80FB683B623B6A002B03D101215C4804F001
S1130D9029FCBB68002B03D13B6A1B6C002B01D1DF
S1130DA0012300E00023002B03D10121544804F067
S1130DB019FC00F0C3FF0346002B02D17B68002B13
S1130DC001D1012300E00023002B03D101214C4871
S1130DD004F008FC01F0CCFC3B6A9B6BFB61FB69F3
S1130DE0002B1FD0B968386A00F014F9FB695A1E49
S1130DF03B6A9A633B6A1B69002B0FD03B6A103332
S1130E00184600F0E5FD0346002B07D03D4B4FF09C
S1130E1080521A60BFF34F8FBFF36F8F01F0D0FC85
S1130E20012369E07B68002B03D101F0C9FC002396
S1130E3062E07B6A002B06D107F11403184600F028
S1130E4025FE01237B6201F0BBFC00F0BDFB01F039
S1130E508FFC3B6A93F844305BB2B3F1FF3F03D19C
S1130E603B6A002283F844203B6A93F845305BB226
S1130E70B3F1FF3F03D13B6A002283F8452001F020
S1130E809FFC3A1D07F114031146184600F014FEA6
S1130E900346002B23D1386A00F034F90346002BB3
S1130EA017D03B6A24337A681146184600F04AFD8D
S1130EB0386A00F0D5F800F095FB0346002B89D181
S1130EC0104B4FF080521A60BFF34F8FBFF36F8FF8
S1130ED080E7386A00F0C4F800F084FB7AE7386AE7
S1130EE000F0BEF800F07EFB386A00F00BF9034610
S1130EF0002B3FF46FAF002318462837BD4680BD52
S1130F002015002004ED00E080B584B000AF7860C7
S1130F107B68FB60FB68002B03D10121074804F0C8
S1130F2061FBFB6893F84630002B02D1F868FFF7A9
S1130F303FFB00BF1037BD4680BD00BF2015002019
S1130F4080B586B000AFF860B9607A6000237B6139
S1130F50FB689B6B3B61FB681B6C002B0DD1FB6832
S1130F601B68002B4DD1FB689B68184600F004FFFA
S1130F707861FB6800229A6043E07B68002B19D1FA
S1130F80FB685868FB681B6C1A46B96803F07AFF63
S1130F90FB685A68FB681B6C1A44FB685A60FB6860
S1130FA05A68FB689B689A422BD3FB681A68FB68F3
S1130FB05A6026E0FB68D868FB681B6C1A46B9685F
S1130FC003F060FFFB68DA68FB681B6C5B421A4441
S1130FD0FB68DA60FB68DA68FB681B689A4207D230
S1130FE0FB689A68FB681B6C5B421A44FB68DA6016
S1130FF07B68022B05D13B69002B02D03B69013B86
S11310003B613B695A1CFB689A637B691846183735
S1131010BD4680BD80B582B000AF786039607B6822
S11310201B6C002B18D07B68DA687B681B6C1A4435
S11310307B68DA607B68DA687B689B689A4203D3D2
S11310407B681A687B68DA607B68D9687B681B6C8C
S11310501A46386803F016FF00BF0837BD4680BD46
S113106080B584B000AF786001F082FB7B6893F8B0
S11310704530FB7311E07B685B6A002B12D07B6800
S11310802433184600F0A4FC0346002B01D000F0E2
S113109079FDFB7B013BDBB2FB7397F90F30002B2F
S11310A0E9DC00E000BF7B68FF2283F8452001F003
S11310B087FB01F05DFB7B6893F84430BB7311E060
S11310C07B681B69002B12D07B681033184600F034
S11310D07FFC0346002B01D000F054FDBB7B013B99
S11310E0DBB2BB7397F90E30002BE9DC00E000BFE4
S11310F07B68FF2283F8442001F062FB00BF1037B5
S1131100BD4680BD80B584B000AF786001F030FB8F
S11311107B689B6B002B02D10123FB6001E0002361
S1131120FB6001F04DFBFB6818461037BD4680BDDF
S113113080B584B000AF786001F01AFB7B689A6BCD
S11311407B68DB6B9A4202D10123FB6001E0002340
S1131150FB6001F035FBFB6818461037BD4680BDC7
S113116080B586B000AFF860B9607A60FB687B61D7
S113117001F0FEFA7B6993F844305BB2B3F1FF3FB0
S113118003D17B69002283F844207B6993F84530BE
S11311905BB2B3F1FF3F03D17B69002283F84520A2
S11311A001F00EFB7B699B6B002B06D17B6924331A
S11311B07A68B968184600F0E5FB7869FFF750FFD4
S11311C000BF1837BD4680BD80B58CB004AFF86051
S11311D0B9607A603B60FB6A002B03D101211E4891
S11311E004F000FA3B6B002B03D101211A4804F0F0
S11311F0F9F96C237B617B696C2B03D001211648C0
S113120004F0F0F97B693B6B002B1ED0FB6A002BCA
S11312101BD03B6BFB61FB69FA6A1A63FB69022210
S113122083F8692000230393FB69029307F11803F1
S11312300193BB6A00933B687A68B968F86800F068
S113124053F8F86900F0F0F801E00023BB61BB69D2
S113125018462037BD4680BD2015002080B58CB0CF
S113126004AFF860B9603B601346FB80FB889B00C9
S11312701846FFF701F978617B69002B0ED06C20CA
S1131280FFF7FAF8F861FB69002B03D0FB697A6970
S11312901A6305E07869FFF78BF901E00023FB612D
S11312A0FB69002B17D0FB69002283F86920FA88B8
S11312B000230393FB690293FB6A0193BB6A0093C7
S11312C03B68B968F86800F00FF8F86900F0ACF80A
S11312D00123BB6102E04FF0FF33BB61BB691846D9
S11312E02037BD4680BD000080B586B000AFF860F1
S11312F0B9607A603B60BB6A186B7B689B001A46D6
S1131300A52103F0CAFDBB6A1A6B7B6803F1804315
S1131310013B9B0013443B613B6923F007033B61A2
S11313203B6903F00703002B03D001213D4804F07F
S113133059F9BB6A3A695A64BB68002B1FD0002371
S11313407B6112E0BA687B6913441978BA6A7B69D5
S1131350134434330A461A70BA687B6913441B7801
S1131360002B06D07B6901337B617B690E2BE9D9A5
S113137000E000BFBB6A002283F8422003E0BB6A9E
S1131380002283F834203B6A062B01D906233B62F2
S1131390BB6A3A6ADA62BB6A3A6A1A65BB6A0022B5
S11313A05A65BB6A04331846FFF7CAF9BB6A183397
S11313B01846FFF7C5F9BB6ABA6A1A613B6AC3F1FA
S11313C00702BB6A9A61BB6ABA6A5A6200237B61EC
S11313D008E0BB6A7A691632002143F822107B695F
S11313E001337B617B69022BF3D9BB6A00225A6605
S11313F0BB6A002283F86820BB6A002283F86A2053
S11314003A68F968386901F0B9F80246BB6A1A60AB
S11314107B6A002B02D07B6ABA6A1A6000BF183755
S1131420BD4680BD2015002080B582B000AF786035
S113143001F09EF92C4B1B6801332B4A13602B4B94
S11314401B68002B09D1294A7B681360264B1B6853
S1131450012B10D100F0BCFB0DE0254B1B68002BC9
S113146009D1224B1B68DA6A7B68DB6A9A4202D88C
S11314701E4A7B6813601F4B1B6801331D4A1360AF
S11314801C4B1A687B689A647B68DB6A01229A4069
S1131490194B1B681343184A13607B68DA6A1346B6
S11314A09B0013449B00154A1A447B680433194675
S11314B01046FFF752F901F083F90D4B1B68002B1E
S11314C00ED00A4B1B68DA6A7B68DB6A9A4207D241
S11314D00B4B4FF080521A60BFF34F8FBFF36F8FE7
S11314E000BF0837BD4680BD980E0020980D00202F
S11314F0A40E0020B40E0020A00E00209C0D00209D
S113150004ED00E080B58AB004AF0023FB60002343
S1131510BB603A1D07F1080107F10C031846FEF7FA
S11315208FFE7968BB68FA680292019300230093E6
S113153000230A461D491E48FFF746FE02461D4B7E
S11315401A601C4B1B68002B02D001237B6101E055
S113155000237B617B69012B02D100F0F1FC7861EF
S11315607B69012B15D14FF0200383F31188BFF35E
S11315706F8FBFF34F8F3B610F4B4FF0FF321A60F9
S11315800E4B01221A600E4B00221A6001F062F821
S113159007E07B69B3F1FF3F03D10121094804F05F
S11315A021F800BF1837BD4680BD00BF045C0000B1
S11315B09D1B0000BC0E0020B80E0020A40E0020CD
S11315C09C0E00202015002080B400AF044B1B6843
S11315D00133034A136000BFBD465DF8047B7047C6
S11315E0C00E002080B584B000AF0023FB60002350
S11315F0BB603E4B1B68002B03D101213C4803F028
S1131600F1FF01F0B5F8394B1B68013B374A136011
S1131610364B1B68002B61D1364B1B68002B5DD009
S11316202EE0354BDB68DB68FB60FB68183318463B
S1131630FFF7F0F8FB6804331846FFF7EBF8FB6894
S1131640DB6A01229A402D4B1B6813432B4A13601B
S1131650FB68DA6A13469B0013449B00284A1A4429
S1131660FB68043319461046FFF777F8FB68DA6A1B
S1131670244B1B68DB6A9A4202D3234B01221A6073
S11316801D4B1B68002BCCD1FB68002B01D000F054
S113169035FB1E4B1B687B607B68002B10D000F071
S11316A049F80346002B02D0174B01221A607B68CD
S11316B0013B7B607B68002BF1D1144B00221A6044
S11316C0114B1B68002B09D00123BB60104B4FF05A
S11316D080521A60BFF34F8FBFF36F8F01F070F821
S11316E0BB6818461037BD4680BD00BFC00E002041
S11316F020150020980E0020580E0020A00E002077
S11317009C0D0020980D0020AC0E0020A80E002097
S113171004ED00E080B483B000AF054B1B687B6030
S11317207B6818460C37BD465DF8047B704700BFE4
S11317309C0E002080B586B000AF00237B614B4B2C
S11317401B68002B40F08180494B1B6801333B61CF
S1131750474A3B6913603B69002B19D1454B1B6811
S11317601B68002B03D00121434803F03BFF414B8E
S11317701B68FB60414B1B683E4A13603F4AFB6891
S113178013603F4B1B6801333D4A136000F0B6FA07
S11317903C4B1B683A699A4248D3364B1B681B681A
S11317A0002B04D1374B4FF0FF321A603EE0314B2F
S11317B01B68DB68DB68BB60BB685B687B603A699D
S11317C07B689A4203D22F4A7B6813602EE0BB6881
S11317D004331846FFF71EF8BB689B6A002B04D03D
S11317E0BB6818331846FFF715F8BB68DB6A01229B
S11317F09A40254B1B681343234A1360BB68DA6A7B
S113180013469B0013449B00204A1A44BB680433CC
S113181019461046FEF7A1FFBB68DA6A1C4B1B6829
S1131820DB6A9A42B9D301237B61B6E7184B1B6884
S1131830DA6A164913469B0013449B000B441B6849
S1131840012B07D901237B6104E0124B1B68013390
S1131850104A1360104B1B68002B01D001237B61DD
S11318607B6918461837BD4680BD00BFC00E0020F6
S11318709C0E0020500E002020150020540E002045
S1131880B00E0020B80E0020A00E00209C0D0020F9
S1131890980D0020A80E0020AC0E002080B584B066
S11318A000AF224B1B68002B03D0214B01221A608E
S11318B038E01F4B00221A601E4B1B687B607B685C
S11318C0B3FA83F3FB70FB78C3F11F03FB601A497F
S11318D0FA6813469B0013449B000B441B68002BBF
S11318E003D10121154803F07DFEFA6813469B00DD
S11318F013449B00104A1344BB60BB685B685A687E
S1131900BB685A60BB685A68BB6808339A4204D102
S1131910BB685B685A68BB685A60BB685B68DB6815
S1131920074A136000BF1037BD4680BDC00E0020BB
S1131930AC0E0020A00E00209C0D002020150020DD
S1131940980D002080B582B000AF786039607B6864
S1131950002B03D10121094803F044FE084B1B6806
S1131960183319467868FEF71CFF0121386800F027
S11319707DFA00BF0837BD4680BD00BF201500209A
S1131980980D002080B584B000AFF860B9607A602B
S1131990FB68002B03D101210B4803F023FE0B4B02
S11319A01B6818331946F868FEF7D7FE7B68002BCE
S11319B002D04FF0FF33BB607968B86800F056FA84
S11319C000BF1037BD4680BD20150020980D0020B3
S11319D080B584B000AF78607B68DB68DB68BB608F
S11319E0BB68002B03D10121214803F0FBFDBB6838
S11319F018331846FEF70EFF1E4B1B68002B1CD134
S1131A00BB6804331846FEF705FFBB68DB6A012296
S1131A109A40194B1B681343174A1360BB68DA6A70
S1131A2013469B0013449B00144A1A44BB680433B6
S1131A3019461046FEF791FE05E0BB6818331946B7
S1131A400F48FEF78AFEBB68DA6A0E4B1B68DB6A36
S1131A509A4205D90123FB600B4B01221A6001E075
S1131A600023FB60FB6818461037BD4680BD00BFED
S1131A7020150020C00E0020A00E00209C0D002088
S1131A80580E0020980D0020AC0E002080B483B0C6
S1131A9000AF7860064B1A687B681A60054B1A68B9
S1131AA07B685A6000BF0C37BD465DF8047B704705
S1131AB0B00E00209C0E002080B586B000AF786088
S1131AC039607B68002B03D101212A4803F08AFD89
S1131AD03B68002B03D10121264803F083FD00F06D
S1131AE047FE254B1B683B617B685B683A69D31AE8
S1131AF0FB60224B1B6893F86A30002B07D01F4B06
S1131B001B68002283F86A2001237B612BE03B6879
S1131B101B68B3F1FF3F02D100237B6123E07B68A4
S1131B201A68174B1B689A4207D07B685B683A694E
S1131B309A4202D301237B6115E03B681B68FA6873
S1131B409A420BD23B681A68FB68D21A3B681A6047
S1131B507868FFF79BFF00237B6104E03B68002269
S1131B601A6001237B6100F02BFE7B69184618374D
S1131B70BD4680BD201500209C0E0020980D00203D
S1131B80B00E002080B400AF034B01221A6000BFE6
S1131B90BD465DF8047B7047AC0E002080B582B072
S1131BA000AF786000F054F8074B1B68012B07D98D
S1131BB0064B4FF080521A60BFF34F8FBFF36F8F05
S1131BC0FEF77AFBEEE700BF9C0D002004ED00E079
S1131BD080B582B000AF00237B600CE07A681346C6
S1131BE09B0013449B00124A13441846FEF788FDD9
S1131BF07B6801337B607B68062BEFD90D48FEF7C9
S1131C007FFD0D48FEF77CFD0C48FEF779FD0C487E
S1131C10FEF776FD0B48FEF773FD0B4B054A1A6081
S1131C200A4B054A1A6000BF0837BD4680BD00BF95
S1131C309C0D0020280E00203C0E0020580E002091
S1131C406C0E0020840E0020500E0020540E002044
S1131C5080B582B000AF19E000F08AFD0F4BDB685D
S1131C60DB687B607B6804331846FEF7D3FD0C4BBE
S1131C701B68013B0A4A13600A4B1B68013B094A73
S1131C80136000F09DFD786800F00EF8054B1B68AA
S1131C90002BE1D100BF0837BD4680BD6C0E00208B
S1131CA0980E0020800E002080B582B000AF7860CE
S1131CB07B6893F86930002B08D17B681B6B18464E
S1131CC0FEF776FC7868FEF773FC11E07B6893F806
S1131CD06930012B03D17868FEF76AFC08E07B6861
S1131CE093F86930022B03D00121034803F07AFCF6
S1131CF000BF0837BD4680BD2015002080B483B0E6
S1131D0000AF0C4B1B681B68002B04D10A4B4FF02F
S1131D10FF321A6008E0074B1B68DB68DB687B60F6
S1131D207B685B68044A136000BF0C37BD465DF8EE
S1131D30047B7047500E0020B80E002080B483B09E
S1131D4000AF0B4B1B68002B02D101237B6008E022
S1131D50084B1B68002B02D102237B6001E00023A7
S1131D607B607B6818460C37BD465DF8047B704782
S1131D70A40E0020C00E002080B584B000AF7860AF
S1131D807B68BB600023FB607B68002B60D0334B17
S1131D901B68BA689A4203D00121314803F022FC3F
S1131DA0BB685B6D002B03D101212D4803F01AFCA5
S1131DB0BB685B6D5A1EBB685A65BB68DA6ABB6850
S1131DC01B6D9A4244D0BB685B6D002B40D1BB684D
S1131DD004331846FEF71EFD0346002B15D1BB68DD
S1131DE0DA6A204913469B0013449B000B441B688A
S1131DF0002B0AD1BB68DB6A012202FA03F3DA433F
S1131E00194B1B681340184A1360BB681A6DBB68F2
S1131E10DA62BB68DB6AC3F10702BB689A61BB681C
S1131E20DB6A01229A40104B1B6813430E4A13606D
S1131E30BB68DA6A13469B0013449B00094A1A44A0
S1131E40BB68043319461046FEF787FC0123FB6088
S1131E50FB6818461037BD4680BD00BF980D0020B2
S1131E60201500209C0D0020A00E002080B584B019
S1131E7000AF786039602B4B1B68FB602A4B1B68F2
S1131E80002283F86A20284B1B6804331846FEF7A7
S1131E90C1FC0346002B0BD1234B1B68DB6A0122D8
S1131EA002FA03F3DA43214B1B6813401F4A136001
S1131EB07B68B3F1FF3F0AD13B68002B07D01A4B74
S1131EC01B68043319461A48FEF747FC26E0FA68F3
S1131ED07B681344BB60144B1B68BA685A60BA68C9
S1131EE0FB689A4209D2134B1A680F4B1B680433E0
S1131EF019461046FEF755FC10E00F4B1A680A4BC2
S1131F001B68043319461046FEF74BFC0B4B1B6849
S1131F10BA689A4202D2094ABB68136000BF1037FC
S1131F20BD4680BD9C0E0020980D0020A00E002010
S1131F30840E0020540E0020500E0020B80E002005
S1131F4080B588B004AF0023FB6000F0E3FA184BBF
S1131F501B68002B20D00023BB6000237B603A4623
S1131F60391D07F108031846FEF784F939687B68C0
S1131F70BA68029201930623009300230A460D498E
S1131F800D48FFF721F902460C4B1A600B4B1B68F6
S1131F90002B01D00123FB60FB68002B03D101213E
S1131FA0074803F01FFBFB6818461037BD4680BD89
S1131FB0F40E00201C5C0000E5200000F80E002058
S1131FC02015002080B58AB000AFF860B9607A604F
S1131FD03B6000237B62FB68002B03D101211B487B
S1131FE003F000FB1A4B1B68002B2AD0BB687B61F3
S1131FF07B68BB61FB68FB61BB68052B18DCFFF7E2
S11320009DFE0346022B09D1114B186807F11401F8
S113201000233A6BFEF744FD786212E00C4B18681B
S113202007F1140100230022FEF73AFD786208E06C
S1132030074B186807F1140100233A68FEF714FEF1
S113204078627B6A18462837BD4680BD201500207B
S1132050F40E002080B586B002AF786039601F4B63
S11320601B68DB68DB68FB60FB6804331846FEF71B
S1132070D1FBFB6893F8283003F00403002B1BD03A
S1132080FB689A697B68D1187B683A68F86800F045
S1132090CFF80346002B18D00023009300237A685E
S11320A00021F868FFF78EFFB860BB68002B0CD1E5
S11320B001210B4803F096FAFB6893F8283023F0CB
S11320C00103DAB2FB6883F82820FB681B6AF8680E
S11320D0984700BF1037BD4680BD00BFEC0E0020FE
S11320E02015002080B584B000AF7860FEF7A0F81A
S11320F007F10803184600F057F8F860BB68194662
S1132100F86800F003F800F0D5F8F1E780B584B082
S113211000AF78603960FFF757FA07F108031846F3
S113212000F066F8F860BB68002B30D13B68002BE8
S11321300AD17A68FB689A4206D8FFF753FAF9681D
S11321407868FFF787FF24E03B68002B08D0134B27
S11321501B681B68002B01D1012300E000233B60B6
S11321600F4B18687A68FB68D31A3A681946FEF769
S1132170F7FFFFF737FA0346002B0AD1094B4FF05C
S113218080521A60BFF34F8FBFF36F8F01E0FFF7E8
S113219029FA00BF1037BD4680BD00BFF00E0020F5
S11321A0F40E002004ED00E080B485B000AF786048
S11321B00E4B1B681B68002B01D1012200E000229A
S11321C07B681A607B681B68002B05D1074B1B6872
S11321D0DB681B68FB6001E00023FB60FB681846BA
S11321E01437BD465DF8047B704700BFEC0E002039
S11321F080B584B000AF7860FFF78CFAF8600B4BC1
S11322001B68FA689A4205D200F024F97B6801221F
S11322101A6002E07B6800221A60044AFB681360BB
S1132220FB6818461037BD4680BD00BFFC0E002079
S113223080B586B000AFF860B9607A603B60002377
S11322407B61FB68BA685A60FB68FA681A61BA680D
S11322507B689A4212D87A683B68D21AFB689B69F9
S11322609A4202D301237B611BE0104B1A68FB687E
S1132270043319461046FEF794FA12E07A683B6874
S11322809A4206D2BA683B689A4202D301237B6120
S113229007E0074B1A68FB68043319461046FEF73B
S11322A080FA7B6918461837BD4680BDF00E0020C1
S11322B0EC0E002080B58CB002AFB6E0BB68002BFA
S11322C012DA07F1080304337B627B6A002B03D123
S11322D001215E4803F086F97B6A1B687A6A5068BC
S11322E07A6A926811469847BB68002BC0F29C80BA
S11322F03B693B623B6A5B69002B04D03B6A043355
S11323001846FEF787FA3B1D1846FFF771FFF86180
S1132310BB68092B00F2898001A252F823F000BFA8
S1132320492300004923000049230000AF23000093
S1132330C3230000FF2300004923000049230000B9
S1132340AF230000C32300003B6A93F8283043F016
S11323500103DAB23B6A83F82820FA683B6A9B6976
S1132360D118FB68FA69386AFFF762FF0346002B4D
S11323705BD03B6A1B6A386A98473B6A93F82830FB
S113238003F00403002B50D0FA683B6A9B691A449B
S11323900023009300230021386AFFF713FEB8617D
S11323A0BB69002B41D10121284803F01BF93B6A8A
S11323B093F8283023F00103DAB23B6A83F828202B
S11323C033E03B6A93F8283043F00103DAB23B6A06
S11323D083F82820FA683B6A9A613B6A9B69002B60
S11323E003D10121194803F0FDF83B6A9A69FB699E
S11323F0D118FB69FA69386AFFF71AFF15E03B6ADE
S113240093F8283003F00203002B03D1386AFEF757
S1132410CFF80AE03B6A93F8283023F00103DAB2DC
S11324203B6A83F8282000E000BF094B1B6807F1D2
S1132430080100221846FEF79BFC0346002B7FF49C
S11324403DAF00BF2837BD4680BD00BF201500202A
S1132450F40E002080B588B002AF41E02A4B1B681F
S1132460DB681B683B61284B1B68DB68DB68FB602F
S1132470FB6804331846FEF7CDF9FB681B6AF8685D
S11324809847FB6893F8283003F00403002B27D007
S1132490FB689B693A691344BB60BA683B699A421A
S11324A00ED9FB68BA685A60FB68FA681A61164B61
S11324B01A68FB68043319461046FEF772F90FE0F8
S11324C00023009300233A690021F868FFF77AFD9E
S11324D078607B68002B03D101210C4803F082F85B
S11324E0094B1B681B68002BB8D1074B1B687B6129
S11324F0074B1B68044A1360054A7B69136000BFDD
S11325001837BD4680BD00BFEC0E0020201500200A
S1132510F00E002080B582B002AF00F029F9104B14
S11325201B68002B16D10F48FEF7EAF80E48FEF799
S1132530E7F80E4B0B4A1A600D4B0B4A1A60002346
S113254000930C4B0C4A10210520FEF7F1F90246CA
S1132550034B1A6000F034F900BFBD4680BD00BFD4
S1132560F40E0020C40E0020D80E0020EC0E002033
S1132570F00E0020500F0020000F002080B485B022
S113258000AFF860B9607A60FB68043BFB60FB68ED
S11325904FF080721A60FB68043BFB60BB6823F059
S11325A00102FB681A60FB68043BFB600C4AFB6891
S11325B01A60FB68143BFB607A68FB681A60FB686E
S11325C0043BFB60FB686FF002021A60FB68203B6F
S11325D0FB60FB6818461437BD465DF8047B704702
S11325E0E525000080B582B000AF00233B600D4BB1
S11325F01B68B3F1FF3F03D001210B4802F0F2FF47
S11326004FF0200383F31188BFF36F8FBFF34F8F15
S11326107B6000BF3B68002BFCD000BF0837BD4681
S113262080BD00BF1000002020150020084800686D
S1132630006880F308884FF0000080F3148862B6C5
S113264061B6BFF34F8FBFF36F8F00DF00BF00BFD2
S113265008ED00E080B584B000AF3B4B1B683B4AFB
S1132660934203D101213A4802F0BCFF364B1B6868
S1132670384A934203D10121354802F0B3FF364B67
S1132680FB60FB681B78DBB2BB60FB68FF221A703F
S1132690FB681B78DBB2FB71FB79DBB203F0200330
S11326A0DAB22E4B1A702E4B07221A6009E02C4B1B
S11326B01B68013B2A4A1360FB79DBB25B00DBB287
S11326C0FB71FB79DBB203F08003802BEFD0244B4A
S11326D01B68C3F10703032B03D001211C4802F03C
S11326E081FF1F4B1B681B021D4A13601C4B1B6898
S11326F003F4E0631A4A1360BB68DAB2FB681A7029
S1132700184B1B68174A43F480331360154B1B683E
S1132710144A43F08073136000F074F8124B0022E3
S11327201A6000F089F8114B1B68104A43F04043CB
S11327301360FFF77BFFFFF7B1F8FFF753FF0023A8
S113274018461037BD4680BD00ED00E071C20F4150
S11327502015002070C20F4100E400E0A00F00200B
S1132760A40F002020ED00E01000002034EF00E072
S113277080B582B000AF4FF0200383F31188BFF31C
S11327806F8FBFF34F8F7B600A4B1B680133094A7D
S11327901360084B1B68012B08D1074B1B68DBB285
S11327A0002B03D00121054802F01CFF00BF0837AD
S11327B0BD4680BD1000002004ED00E0201500207F
S11327C080B582B000AF0D4B1B68002B03D10121F3
S11327D00B4802F007FF094B1B68013B074A1360D3
S11327E0064B1B68002B04D100237B607B6883F3BA
S11327F0118800BF0837BD4680BD00BF100000200F
S11328002015002080B400AF084B00221A60084B4A
S113281000221A60074B4EF65F221A60034B072210
S11328201A6000BFBD465DF8047B704710E000E00D
S113283018E000E014E000E0DFF80C00016841F467
S113284070010160704700BF88ED00E080B582B080
S113285000AFEFF305837B607B680F2B0DD90F4A24
S11328607B6813441B78FB700D4B1B78FA789A42F3
S113287003D201210B4802F0B5FE0B4B1B6803F495
S1132880E0620A4B1B689A4203D90121054802F011
S1132890A9FE00BF0837BD4680BD00BFF0E300E0DD
S11328A0A00F0020201500200CED00E0A40F002054
S11328B080B588B002AF0346B9607A60FB8100231B
S11328C07B61154B1B68002B20D100220421786802
S11328D0FEF786F80246104B1A600F4B1B68002B5C
S11328E014D0FA8900230193BB68009300230B4999
S11328F00B48FEF7B3FC0346012B02D101237B6195
S113290004E0054B1B681846FEF7FEFA7B6918467F
S11329101837BD4680BD00BFA80F0020245C00000E
S11329202529000080B584B000AF78600023FB60E7
S11329300A4B1B6807F10C014FF0FF321846FEF7F3
S113294017FA0346012BF3D1FB68184602F01CFE6C
S1132950FB681846FDF72CFEEAE700BFA80F00202D
S113296080B584B000AF78600023BB600023FB60B7
S1132970174B1B68002B03D10121164802F032FECD
S1132980786802F028FF03460133FB60F868FDF71E
S113299073FD0346BB60BB68002B14D0BB68FA68A8
S11329A07968184602F01FFF094B186807F10801FF
S11329B000230022FEF774F80346012B03D0BB6802
S11329C01846FDF7F5FD00BF1037BD4680BD00BFBA
S11329D0A80F00202015002080B483B000AF7860D9
S11329E0002318460C37BD465DF8047B704780B45D
S11329F083B000AF7860FEE780B483B000AF786046
S1132A0039603B684FF400525A60002318460C3773
S1132A10BD465DF8047B704780B483B000AF786036
S1132A20012318460C37BD465DF8047B704780B41B
S1132A3085B000AFF860B9607A6000231846143797
S1132A40BD465DF8047B704780B586B000AFF86082
S1132A50B9607A6000237B610FE000F07FF9386190
S1132A603B69B3F1FF3F0ED0BB685A1CBA603A69A8
S1132A70D2B21A707B6901337B617B685A1E7A601B
S1132A80002BEAD100E000BF7B69002B02DC4FF091
S1132A90FF3300E07B6918461837BD4680BD00004F
S1132AA080B485B000AF78600B4B1B68002B02D15B
S1132AB0094B0A4A1A60084B1B68FB60064B1A68EC
S1132AC07B681344044A1360FB6818461437BD46F8
S1132AD05DF8047B704700BFAC0F00208015002018
S1132AE080B586B000AFF860B9607A6000237B617E
S1132AF009E0BB685A1CBA601B78184600F06EF9EE
S1132B007B6901337B617A697B689A42F1DB7B687C
S1132B1018461837BD4680BD80B483B000AF034665
S1132B20FB7197F90730002B0BDBFB7903F01F02D5
S1132B30074997F907305B09012000FA02F241F8CE
S1132B40232000BF0C37BD465DF8047B704700BFEF
S1132B5000E100E080B483B000AF0346FB7197F955
S1132B600730002B0CDBFB7903F01F02074997F9B0
S1132B7007305B09012000FA02F2603341F8232098
S1132B8000BF0C37BD465DF8047B704700E100E0F0
S1132B9080B483B000AF786039607B683A689A6427
S1132BA000BF0C37BD465DF8047B704780B483B02A
S1132BB000AF786039607B68DA6C3B68DB431A40AD
S1132BC07B68DA6400BF0C37BD465DF8047B704750
S1132BD080B483B000AF786039607B68DA6C3B689E
S1132BE01A437B68DA6400BF0C37BD465DF8047B8A
S1132BF07047000080B500AF04210248FFF7D6FFFC
S1132C0000BF80BD0000014080B500AF0421024830
S1132C10FFF7DEFF00BF80BD0000014098B500AFA4
S1132C20144B1B6903F08003002B20D0124B1B684C
S1132C30072B1ADC114B1C680E4801F0BFFD03463C
S1132C401A460F4B1A550D4B1B6801330B4A136080
S1132C50094B1B680133084A1360084B1B68082B97
S1132C6005D1064B00221A6001E0FFF7C3FF00BF45
S1132C7098BD00BF00000140B80F0020B40F002031
S1132C80BC0F0020B0B588B000AF01212C4800F083
S1132C9065FE01212B4800F061FE01230422072177
S1132CA0042001F027FB012302220621042001F065
S1132CB021FB254BFB61254B3C461D460FCD0FC424
S1132CC095E8070084E807000121214800F046FE4A
S1132CD000233B703B461946F86901F065FCFB692B
S1132CE003225A67FB699B6F23F4E06323F0070315
S1132CF043F4807343F00103FA6993670421124893
S1132D00FFF746FF0620FFF725FF04210E48FFF7D3
S1132D105FFF0620FFF700FF0521F86901F0FAFBC9
S1132D200C4B1B68986800230222002102F062FC0D
S1132D30094B01221A7000BF2037BD46B0BD00BF49
S1132D404041050000550A0000000140485C0000B5
S1132D50007204001C000020C50F002080B582B062
S1132D6000AF4FF0FF337B60184B1B7883F00103F7
S1132D70DBB2002B01D0FFF785FF01F00DFA3860BC
S1132D80134B1B68002B18DD124B1B68124AD35CD3
S1132D90DBB27B600F4B1B6801330E4A13600D4B93
S1132DA01B68082B02D10B4B00221A60084B1B68CE
S1132DB0013B074A1360FFF727FF386801F0FCF96D
S1132DC07B6818460837BD4680BD00BFC50F00208C
S1132DD0B80F0020B00F0020BC0F002080B582B0D7
S1132DE000AF0346FB710F4B1B7883F00103DBB28A
S1132DF0002B01D0FFF746FF0B4B1B78002B06D0AE
S1132E00FB790A2B03D10D21084801F0EBFCFB7977
S1132E101946064801F0E6FCFB7918460837BD461A
S1132E2080BD00BFC50F0020C40F0020000001407A
S1132E3080B586B000AF324B1B6EFB60304BDB6E4F
S1132E40FA681340FB60FB68002B00DAFEE70023FE
S1132E507B6101233B614CE0FA683B691340002B22
S1132E6041D0274A3B6993667B691B01254A134479
S1132E70BB60BB681B68002B35D0BB689B685A1CC1
S1132E80BB689A60BB681B68BA689168BA68526884
S1132E90786998470346002B14BF01230023DBB253
S1132EA083F00103DBB2FB71FB7903F00103FB71D7
S1132EB0BB685B7B012B16D1FB79002B13D0124A24
S1132EC07B695B01134403F1080213796FF3410337
S1132ED013710D4A7B695B01134403F118021379E2
S1132EE06FF3410313717B6901337B613B695B00C1
S1132EF03B617B69172BAFD900BF1837BD4680BD36
S1132F0000200040C80F00204811002080B483B086
S1132F1000AF7860064A7B6804331B011344043312
S1132F201B6818460C37BD465DF8047B704700BF2C
S1132F300020064080B483B000AF78603960074A4F
S1132F407B6804331B01134404333A681A6000BFDE
S1132F500C37BD465DF8047B704700BF0020064077
S1132F6080B582B000AF78607868FFF7CFFF034682
S1132F7018460837BD4680BD80B582B000AF786082
S1132F80396039687868FFF7D5FF00BF0837BD4658
S1132F9080BD000080B400AF034B9B681846BD465B
S1132FA05DF8047B704700BF0020064080B483B006
S1132FB000AF7860044A7B68136200BF0C37BD46DB
S1132FC05DF8047B704700BF0020064080B483B0E6
S1132FD000AF7860064B5A6A7B68DB4304491340B0
S1132FE04B6200BF0C37BD465DF8047B704700BFE1
S1132FF00020064080B483B000AF7860054B5A6A65
S113300004497B6813434B6200BF0C37BD465DF82F
S1133010047B70470020064080B483B000AF064BA9
S11330205B6A7B60044B9A697B68134018460C37D3
S1133030BD465DF8047B70470020064080B586B02D
S113304000AF01F0A9F83861FFF7E6FFF860FB680C
S113305023F005031846FFF7A9FFFB6803F00403F8
S1133060002B30D01B4B01221A70FFF793FF7861BD
S11330700420FFF7ABFF184B1B687A69D31ABB60B7
S1133080B86800F02DF800F093F9786900F0C2F9FF
S1133090FFF780FF7861104B1B687A69D31ABB6015
S11330A00120FFF75DFF02460B4B1B68D31A7B60C0
S11330B00A4B1B78002B03D0BA687B689A42D7D29C
S11330C0044B00221A70386901F076F800BF1837F3
S11330D0BD4680BDEC140020E8140020ED1400204F
S11330E0F0B587B000AF786000237B6156E1AF494B
S11330F07A6913469B001344DB000B441D33002202
S11331001A70AA497A6913469B001344DB000B44E6
S11331101C331B78002B00F03E81A4497A691346C6
S11331209B001344DB000B44D3E900347A68114656
S11331304FF00002A24208BF99421AD29B497A6911
S113314013469B001344DB000B44D3E900567B6811
S11331504FF0000429463246C91A62EB0402934C2C
S1133160786903469B000344DB002344C3E900124F
S113317011E18E497A6913469B001344DB000B442A
S11331801F331B78002B0AD188497A6913469B00A8
S11331901344DB000B441C3300221A70E6E07B6806
S11331A019464FF00002814C786903469B000344A2
S11331B0DB002344D3E900560B4614465B1B64EB47
S11331C00604C7E9023479497A6913469B0013441B
S11331D0DB000B440833D3E9004574497A6913468C
S11331E09B001344DB000B440833D3E90023D7E9E5
S11331F0020101F00DFBA41A65EB030521462A46E2
S11332006A4C786903469B000344DB002344C3E90A
S1133210001266497A6913469B001344DB000B4491
S113322010331B68002B50DD60497A6913469B00FC
S11332301344DB000B44143319685C487A69134661
S11332409B001344DB00034410331B6819445748A4
S11332507A6913469B001344DB000344143319605A
S113326052497A6913469B001344DB000B44143320
S11332701B681D2B7AD94D497A6913469B00134468
S1133280DB000B44D3E90034591C44F10002474CE1
S1133290786903469B000344DB002344C3E900121E
S11332A042497A6913469B001344DB000B441433F0
S11332B01B68A3F11E013D487A6913469B00134421
S11332C0DB0003441433196050E038497A6913462B
S11332D09B001344DB000B441433196833487A69A8
S11332E013469B001344DB00034410331B68C91AC4
S11332F02E487A6913469B001344DB0003441433BD
S113330019602A497A6913469B001344DB000B4475
S113331014331B681D2B29D924497A6913469B0051
S11333201344DB000B44D3E9003413F1FF3144F1BF
S1133330FF321E4C786903469B000344DB002344A0
S1133340C3E9001219497A6913469B001344DB0050
S11333500B4414331B68A3F11E0114487A69134605
S11333609B001344DB000344143319600F497A694A
S113337013469B001344DB000B4418331B68002BDB
S113338009D00A497A6913469B001344DB000B44B5
S11333901D3301221A707B6901337B617B69032B26
S11333A07FF7A5AE00BF1C37BD46F0BD4814002012
S11333B090B583B000AF00237B6022E014497A68A3
S11333C013469B001344DB000B441D331B78002B76
S11333D014D00F497A6813469B001344DB000B4456
S11333E018331C6878680A497A6813469B001344AA
S11333F0DB000B4420331B681946A0477B6801336C
S11334007B607B68032BD9DD00BF0C37BD4690BDC4
S11334104814002090B58BB000AF78604FF0FF33B4
S11334204FF0FF34C7E9063400237B6227E03149BB
S11334307A6A13469B001344DB000B441C331B784D
S1133440002B19D02B497A6A13469B001344DB00E6
S11334500B44D3E90012D7E90634A24208BF9942CB
S11334600AD224497A6A13469B001344DB000B44B6
S1133470D3E90034C7E906347B6A01337B627B6A93
S1133480032BD4DD1C4B00221A70D7E90634B4F1A7
S1133490FF3F08BFB3F1FF3F27D0D7E90634C7E9A0
S11334A004346FF06403FB60FB6819464FF00002BC
S11334B0D7E90434A24208BF994201D20B4614460C
S11334C0C7E906340D4A7B6813600420FFF76EFDDC
S11334D0BA697B68134419460120FFF74DFD064B7A
S11334E001221A700420FFF785FD00BF2C37BD466A
S11334F090BD00BF48140020ED140020E814002003
S113350080B487B000AFF860B9607A60FB6803F1FB
S11335100473DA00BB6813449B007B617B697A689F
S11335201A6000BF1C37BD465DF8047B704780B449
S113353083B000AF786001227B6802FA03F3184677
S11335400C37BD465DF8047B7047000080B483B03F
S113355000AF054B1B687B607B6818460C37BD4683
S11335605DF8047B704700BF1400002080B582B072
S113357000AFFCF709FF7860064BD3F800311B0A53
S113358003F01F0301337A6802FB03F3184608377C
S1133590BD4680BD00400E4080B582B000AF0D48EE
S11335A000F066FC0346FB70FB78072B05D0092B63
S11335B007D1FCF7E9FE786006E0FFF7C7FF786003
S11335C002E000237B6000BF7B6818460837BD46D5
S11335D080BD00BF06000E0080B584B000AF7860E7
S11335E07B68002B02D0012B06D00BE01E4800F0B4
S11335F03FFC0346FB7207E01C4800F039FC03461D
S1133600FB7201E000232AE0FB7A013B072B22D85E
S113361001A252F823F000BF3936000057360000EB
S11336205736000047360000573600005736000072
S11336303F3600004F3600000023FB600EE0FFF72A
S113364085FFF8600AE0FCF7D7FEF86006E0FFF7B4
S11336508DFFF86002E00023FB6000BFFB681846A2
S11336601037BD4680BD00BFB8003200B900340039
S113367080B582B000AF194800F0FAFB0346FB7036
S1133680FB78043B062B21D801A252F823F000BF9B
S1133690B5360000AD360000CD360000BD36000062
S11336A0CD360000CD360000C53600000C4B1B683B
S11336B07B600EE0FCF7A0FE78600AE0FFF746FFAF
S11336C0786006E0074B1B687B6002E000237B60A8
S11336D000BF7B6818460837BD4680BD0A7B3600AC
S11336E00C0000201800002080B584B000AF786082
S11336F07B68002B1AD11A4800F0BAFB0346FB7210
S113370000BFFB7A043B062B22D801A252F823F017
S113371039370000313700005137000041370000CD
S1133720513700005137000049370000002313E0EF
S11337300C4B1B68FB600EE0FCF75EFEF8600AE0D1
S1133740FFF704FFF86006E0074B1B68FB6002E02C
S11337500023FB6000BFFB6818461037BD4680BDE0
S11337600B7C38000C0000201800002080B582B0CB
S113377000AF214800F07CFB0346FB70FB78023B62
S1133780092B31D801A252F823F000BFD937000029
S1133790E1370000BD370000D1370000E9370000F1
S11337A0E9370000E9370000E9370000B5370000C9
S11337B0C5370000114B1B687B6018E0FCF71CFE4A
S11337C0786014E0FCF718FE03465B007B600EE0B3
S11337D00B4B1B687B600AE0FCF742FE786006E056
S11337E0FCF72CFE786002E000237B6000BF7B685E
S11337F018460837BD4680BD0C7F3A0018000020EB
S11338000C00002090B585B000AF78600023BB6049
S11338107B683F4A93420DD03D4A934203D83D4AC8
S1133820934207D007E03C4A934203D03B4A934279
S113383000D000E000BF786800F01AFB0346FB608C
S11338407B68334A934214D0314A934203D8314AB5
S1133850934207D022E0304A934211D02F4A934238
S113386015D01BE02E4BD3F8803003F00703FB6028
S113387014E02B4BD3F8843003F00703FB600DE016
S1133880274BD3F88C3003F00703FB6006E0244B8E
S1133890D3F8883003F00703FB6000BFFB68042BF8
S11338A02DD801A252F823F0F9380000BD380000E9
S11338B0C5380000D5380000CD380000FCF7BEFD47
S11338C0B8601FE0FCF7CCFDB8601BE0FCF7BFFD5F
S11338D0B86017E0FCF738FD0446114BD3F800310B
S11338E01B0E03F0030301331846FFF720FE0346C3
S11338F0B4FBF3F3BB6005E00023BB6002E00023EC
S1133900BB6000BFBB6818461437BD4690BD00BFFE
S11339100300200002001E00040022000500240011
S113392000400E4080B483B000AF78600A4BD3F8F7
S1133930443103F00103002B08D100BF064BD3F838
S113394040217B681340002BF8D100E000BF0C3706
S1133950BD465DF8047B704700400E4080B586B0DC
S113396000AF78600B46FB7000233B617B681B0A49
S113397003F00F03013B0E2B7CD801A252F823F075
S1133980BD390000C9390000753A0000753A0000DD
S1133990C3390000D5390000DF390000E9390000DF
S11339A0F53900004B3A0000013A0000233A0000C8
S11339B0753A0000CF390000453A00002F4B7B6177
S11339C046E02F4B7B6143E02E4B7B6140E02E4B66
S11339D07B613DE02D4B7B6101233B6138E02C4B47
S11339E07B6110233B6133E02A4B7B614FF480738E
S11339F03B612DE0284B7B614FF480333B6127E032
S1133A00264B7B61FB78002B14BF01230023DBB220
S1133A1083F00103DBB2FB70FB7803F00103FB705E
S1133A2016E01F4B7B61FB78002B14BF012300239E
S1133A30DBB283F00103DBB2FB70FB7803F001031C
S1133A40FB7005E0174B7B6102E0174B7B6100BF05
S1133A507B681B0B03F01F03FB603B69002B02D048
S1133A603869FFF75FFFFB781A46F9687869FFF752
S1133A7047FD00E000BF1837BD4680BD00400E4042
S1133A80B0400E40C0400E40C4400E40E0400E40E6
S1133A90E8400E40EC400E40F0400E4060410E40C5
S1133AA064410E40F0410E4050410E4080B584B058
S1133AB000AF78607B6803F47813B3F5D01F00F08F
S1133AC04D81B3F5D01F3CD8B3F5402F00F0C98029
S1133AD0B3F5402F18D8B3F5802F77D0B3F5802FE6
S1133AE006D8002B6ED0B3F5003F00F0AB80ACE1FC
S1133AF0B3F5002F00F08880B3F5202F00F09380F9
S1133B00B3F5C02F71D0A0E1B3F5901F00F0BD80D4
S1133B10B3F5901F08D8B3F5602F00F06281B3F5B8
S1133B20801F00F0628190E1B3F5B01F00F0CA80FD
S1133B30B3F5C01F00F0D880B3F5A01F00F0B48027
S1133B4083E1B3F5381F00F0F580B3F5381F1CD8B6
S1133B50B3F5001F00F0FD80B3F5001F08D8B3F5DE
S1133B60E01F00F00D81B3F5F01F00F089806CE1D7
S1133B70B3F5201F00F02B81B3F5281F00F0C78098
S1133B80B3F5101F00F028815FE1B3F5501F00F07A
S1133B903F81B3F5501F08D8B3F5401F00F00381EF
S1133BA0B3F5481F00F025814FE1B3F5601F00F025
S1133BB04381B3F5681F00F04481B3F5581F00F04A
S1133BC0378142E1FCF7E0FBF86041E1FCF7DCFB04
S1133BD0F860A24BD3F80C311B0AC3F3080301337A
S1133BE0FA68B2FBF3F3FB6032E1FCF7CDFBF8605B
S1133BF09A4BD3F818311B0AC3F308030133FA684C
S1133C00B2FBF3F3FB6023E1FCF7BEFBF860934BDC
S1133C10D3F81C311B0AC3F308030133FA68B2FB5F
S1133C20F3F3FB6014E1FCF7AFFBF8608B4BD3F8C4
S1133C3004311B0AC3F308030133FA68B2FBF3F33C
S1133C40FB6005E1FCF7A0FBF860844BD3F8083176
S1133C501B0AC3F308030133FA68B2FBF3F3FB60F6
S1133C60F6E0FCF791FBF8607C4BD3F814311B0AA7
S1133C7003F01F030133FA68B2FBF3F3FB60E7E0E0
S1133C807748FFF7BFFDF860E2E07548FFF7BAFD3B
S1133C90F860724BD3F820311B0C03F00F03FA6861
S1133CA022FA03F3FB60D3E06E48FFF7ABFDF86044
S1133CB06A4BD3F8303103F00303FA6822FA03F3B2
S1133CC0FB60C5E06648FFF79DFDF860634BD3F8E1
S1133CD0203103F00F031846FFF729FC0246FB6866
S1133CE0B3FBF2F3FB60B3E05D48FFF78BFDF860D4
S1133CF05A4BD3F820311B0903F00F031846FFF782
S1133D0016FC0246FB68B3FBF2F3FB60A0E05448E8
S1133D10FFF778FDF860514BD3F820311B0B03F00B
S1133D2007031846FFF703FC0246FB68B3FBF2F3F4
S1133D30FB608DE04A48FFF765FDF860474BD3F818
S1133D4020311B0A03F00303FA6822FA03F3FB6031
S1133D507EE04548FFF756FDF86079E04248FFF7FA
S1133D6051FDF8603D4BD3F8283103F003031846A6
S1133D70FFF7DDFB0246FB68B3FBF2F3FB6067E091
S1133D803948FFF73FFDF860344BD3F828311B095D
S1133D9003F003031846FFF7CAFB0246FB68B3FBB4
S1133DA0F2F3FB6054E03048FFF72CFDF8602B4B36
S1133DB0D3F828311B0B03F0030304331846FFF731
S1133DC0B6FB0246FB68B3FBF2F3FB6040E0274816
S1133DD0FFF718FDF8603BE02248FFF713FDF86099
S1133DE036E0FFF7D9FBF86032E0FFF7AFFBF8608D
S1133DF02EE00020FFF7F0FBF860184BD3F85C319D
S1133E0003F003030133FA68B2FBF3F3FB601FE032
S1133E100120FFF7E1FBF860104BD3F85C311B0C79
S1133E2003F003030133FA68B2FBF3F3FB600FE022
S1133E30FFF71EFCF8600BE00020FFF755FCF8606C
S1133E4006E0FFF793FCF86002E00023FB6000BF8C
S1133E50FB6818461037BD4680BD00BF00400E40C9
S1133E6002001E00050024000300200004002200BC
S1133E7080B485B000AF78600123FB737B6803F0E6
S1133E800F03BB60BB68013B0B2B00F2748101A2E2
S1133E9052F823F0C53E0000213F0000513F0000CE
S1133EA0C93F0000993F0000F93F0000774100003E
S1133EB01D4000005F400000A3400000E3400000FC
S1133EC023410000B34BD3F8943003F00703023BC3
S1133ED0052B21D801A252F823F000BF013F0000B6
S1133EE0FB3E0000F53E0000073F0000133F0000CA
S1133EF00D3F00000223FB7311E00323FB730EE06C
S1133F000423FB730BE00D23FB7308E00E23FB7308
S1133F1005E00A23FB7302E00523FB7300BF32E1D3
S1133F209C4BD3F8803003F00703022B06D0042BFC
S1133F3007D0012B08D10323FB7308E00223FB7392
S1133F4005E00C23FB7302E00123FB7300BF1AE1BD
S1133F50904BD3F8843003F00703013B032B17D8AD
S1133F6001A252F823F000BF793F00007F3F000018
S1133F708B3F0000853F00000323FB730BE002230B
S1133F80FB7308E00C23FB7305E00623FB7302E0DC
S1133F900123FB7300BFF6E07E4BD3F8883003F0B7
S1133FA00703022B06D0042B07D0012B08D10323CF
S1133FB0FB7308E00223FB7305E00C23FB7302E0B0
S1133FC00123FB7300BFDEE0724BD3F88C3003F0A7
S1133FD00703022B06D0042B07D0012B08D103239F
S1133FE0FB7308E00223FB7305E00C23FB7302E080
S1133FF00123FB7300BFC6E0664B1B6F03F0030392
S1134000002B04D0012B05D10923FB7305E0072302
S1134010FB7302E00123FB7300BFB4E05D4BD3F8F4
S11340205C3103F03003102B0CD0102B02D8002B82
S113403005D010E0202B08D0302B09D00BE0012351
S1134040FB730BE00723FB7308E00423FB7305E019
S11340500823FB7302E00123FB7300BF93E04D4B85
S1134060D3F85C3103F44013B3F5801F0FD0B3F5DC
S1134070801F02D8002B07D085E0B3F5001F09D0BC
S1134080B3F5401F09D07EE00123FB7308E007234A
S1134090FB7305E00423FB7302E00823FB7300BFFA
S11340A071E03C4BD3F8603103F00303032B65D874
S11340B001A252F823F000BFC9400000CF40000025
S11340C0D5400000DB4000000523FB7308E0042317
S11340D0FB7305E00723FB7302E00A23FB7300BFB5
S11340E04CE02C4BD3F8643103F00303032B47D883
S11340F001A252F823F000BF094100000F41000063
S1134100154100001B4100000523FB7308E0042354
S1134110FB7305E00723FB7302E00A23FB7300BF74
S11341202EE01C4BD3F8F03103F00703052B29D8FC
S113413001A252F823F000BF514100005741000092
S11341405D41000063410000694100006F410000CF
S11341500A23FB730EE00423FB730BE00B23FB73B6
S113416008E00523FB7305E00223FB7302E003234D
S1134170FB7300BF06E00023FB7304E000BF02E012
S113418000BF00E000BFFB7B18461437BD465DF856
S1134190047B704700400E4080B483B000AFEFF35F
S11341A010833B603B687B6072B67B6818460C37B3
S11341B0BD465DF8047B704780B483B000AF78607F
S11341C07B68002B00D162B600BF0C37BD465DF89A
S11341D0047B704780B485B000AF786039607B6839
S11341E003F1C063FB60FB683A681A6000BF1437D0
S11341F0BD465DF8047B704780B485B000AF78603D
S113420039607B6803F18063FB60FB683A681A607D
S113421000BF1437BD465DF8047B704780B582B09B
S113422000AF03463960FB71FB79002B16D0FB7994
S1134230012B13D0FB79022B10D0FB79032B0DD06B
S1134240FB79042B0AD0FB79052B07D0FB79062BCD
S113425004D0FB79072B01D0FB79082BFA7913469C
S11342605B0013441B010C3303F1804303F5082363
S113427001213A6801FA02F211461846FFF7BCFF21
S113428000BF0837BD4680BD80B582B000AF03468D
S11342903960FB71FB79002B16D0FB79012B13D00D
S11342A0FB79022B10D0FB79032B0DD0FB79042B67
S11342B00AD0FB79052B07D0FB79062B04D0FB79B8
S11342C0072B01D0FB79082BFA7913465B001344C2
S11342D01B010C3303F1804303F5082301213A68E1
S11342E001FA02F211461846FFF774FF00BF0837BF
S11342F0BD4680BD80B584B000AFB9607B60034625
S1134300FB731346BB73FB7B002B16D0FB7B012B8B
S113431013D0FB7B022B10D0FB7B032B0DD0FB7B3C
S1134320042B0AD0FB7B052B07D0FB7B062B04D088
S1134330FB7B072B01D0FB7B082BBB7B002B0DD019
S11343407B68002B05D0FB7BB9681846FFF79CFF00
S113435004E0FB7BB9681846FFF760FFBB68072BD6
S113436020D82E49FA7B13465B0013441B010B44EF
S113437004331A68BB689B000F2101FA03F3DB4383
S11343801340B97BBA68920001FA02F2114623483D
S1134390FA7B194313465B0013441B0103440433A3
S11343A0196025E01D49FA7B13465B0013441B0189
S11343B00B4408331A68BB6803F18043083B9B0035
S11343C00F2101FA03F3DB4302EA0301BA7BBB6862
S11343D003F18043083B9B0002FA03F30F48FA7B86
S11343E0194313465B0013441B010344083319604B
S11343F0BB7B002B0DD17B68002B05D0FB7BB96800
S11344001846FFF741FF04E0FB7BB9681846FFF745
S113441005FF00BF1037BD4680BD00BF00800840C7
S113442080B483B000AF78600B46FB70FB7863F018
S11344307F03DBB21A467B689A6500BF0C37BD4622
S11344405DF8047B7047000080B586B000AFF8606B
S1134450B9607A60FB70BB68002B0CD1FB68294AF9
S1134460934204D12848FFF721FBB86003E02748B2
S1134470FFF71CFBB860FB78202B0CD0202B02DC50
S1134480002B05D03AE0402B08D0602B09D035E052
S113449010237B6108E008237B6105E006237B6130
S11344A002E004237B6100BFBB685A017B69796821
S11344B001FB03F35B0813443B617B697A6802FBED
S11344C003F33A69B2FBF3F33B613B69203B3B6185
S11344D03B69DB003B613A690D4B13403B61FB6870
S11344E01B6823F06002FB681A60FB681A68FB789B
S11344F01A43FB681A60FB683A695A611837BD466B
S113450080BD00BF00080140504107004041050044
S1134510F8FF7F0080B485B000AF78600B46FB7075
S11345207B68194A93421AD07B68184A934216D082
S11345307B68174A934212D07B68164A93420ED086
S11345407B68154A93420AD07B68144A934206D08A
S11345507B68134A934202D07B68124A934200BF9D
S1134560FB78DB43FB60FB6803F00503FB60FB683F
S11345705A007B68DA60FA787B68DA6000BF143727
S1134580BD465DF8047B7047000001400004014013
S113459000080140000C01400010014000140140DB
S11345A0004001400044014080B582B000AF786013
S11345B039607B683B4A93421AD07B683A4A9342FB
S11345C016D07B68394A934212D07B68384A9342AA
S11345D00ED07B68374A93420AD07B68364A9342AE
S11345E006D07B68354A934202D07B68344A9342B2
S11345F000BF786800F066F83B689B7C002B05D010
S11346007B681B6843F080427B681A603B68DB7CF4
S1134610002B05D03B681B7D19467868FFF700FF27
S11346203B685B7B1A463B681B8A13433A68D28912
S11346301A437B685A603B6859683B689A683B68D0
S11346401B7B7868FFF700FF3B685B7D002B05D080
S11346507B681B6843F480327B681A603B689B7DEF
S11346601B0703F0E0423B68DB7D1B0503F4E0031A
S11346701A437B681A667B685B6F23F030027B68A1
S11346805A677B685B6F3A68127E1A437B685A6785
S11346903B681B781A467B68DA6000BF0837BD4662
S11346A080BD00BF0000014000040140000801403B
S11346B0000C014000100140001401400040014082
S11346C00044014080B483B000AF78607B68324A14
S11346D093421AD07B68314A934216D07B68304AA1
S11346E0934212D07B682F4A93420ED07B682E4AA5
S11346F093420AD07B682D4A934206D07B682C4AA9
S1134700934202D07B682B4A934200BF7B6840F6F9
S1134710AA62DA607B6800221A607B6841F20502B3
S11347205A607B6800229A607B6800225A617B6829
S11347300022DA647B68204A9A647B6800221A6645
S11347407B6800225A677B6800229A677B68002294
S1134750DA677B68104A934203D07B68104A93421D
S113476002D17B6800221A657B6800229A657B6807
S11347700A4A934207D07B680A4A934203D07B6873
S1134780094A934202D17B680022DA6500BF0C37E4
S1134790BD465DF8047B7047000001400004014001
S11347A000080140000C01400010014000140140C9
S11347B00040014000440140F9FF010080B483B08F
S11347C000AF786000BF7B681B6903F08003002B97
S11347D0F9D07B68DB69DBB218460C37BD465DF85F
S11347E0047B704780B483B000AF78600B46FB70E5
S11347F000BF7B681B6903F04003002BF9D0FA78F3
S11348007B685A6300BF0C37BD465DF8047B704774
S113481053B94AB9002908BF00281CBF4FF0FF3123
S11348204FF0FF3000F072B9ADF1080C6DE904CE21
S113483000F006F8DDF804E0DDE9022304B0704777
S11348402DE9F047089E04468846002B4BD18A4246
S1134850154667D9B2FA82F24AB1C2F1200701FAC9
S113486002F320FA07F7954047EA030894404FEA19
S1134870154E230CB8FBFEF71FFA85FC0EFB1788B8
S113488043EA084307FB0CF1994209D9EB1807F1F5
S1134890FF3080F01B81994240F21881023F2B4483
S11348A05B1AA4B2B3FBFEF00EFB103344EA0344DC
S11348B000FB0CFCA44509D92C1900F1FF3380F04E
S11348C00781A44540F2048102382C4440EA0740A1
S11348D0A4EB0C0400271EB1D4400023C6E9004316
S11348E03946BDE8F0878B4209D9002E00F0EB80F1
S11348F00027C6E9000138463946BDE8F087B3FA17
S113490083F7002F47D18B4202D3824200F2FA8010
S1134910841A61EB030301209846002EE0D0C6E917
S11349200048DDE702B9FFDEB2FA82F2002A40F065
S11349308F80491B4FEA154E1FFA85F80127B1FBFA
S1134940FEFC230C0EFB1C1143EA014308FB0CF193
S1134950994207D9EB180CF1FF3002D2994200F2C8
S1134960CD808446591AA3B2B1FBFEF00EFB10149D
S113497043EA044408FB00F8A04507D92C1900F1C8
S1134980FF3302D2A04500F2B6801846A4EB080417
S113499040EA0C409FE7C7F1200CBB4022FA0CFE12
S11349A04EEA030E01FA07F420FA0CF521FA0CF38F
S11349B04FEA1E482543B3FBF8F92C0C08FB1933C6
S11349C01FFA8EFA44EA034309FB0AF49C4202FAF2
S11349D007F200FA07F10BD91EEB030309F1FF30CC
S11349E080F087809C4240F28480A9F102097344DC
S11349F01B1BADB2B3FBF8F008FB103345EA0344CC
S1134A0000FB0AFAA24508D91EEB040400F1FF33A7
S1134A106BD2A24569D90238744440EA0940A0FB2C
S1134A200289A4EB0A044C45C2464B4654D351D0E8
S1134A30002E69D0B1EB0A0564EB030404FA0CFC04
S1134A40FD40FC404CEA0505C6E90054002747E751
S1134A50C2F1200320FA03F7954001FA02F021FA8B
S1134A6003F34FEA154E3843010CB3FBFEF71FFA6C
S1134A7085F80EFB173341EA034107FB08F38B4229
S1134A8004FA02F407D9691807F1FF3C2FD28B42CC
S1134A902DD9023F2944CB1A81B2B3FBFEF00EFBA1
S1134AA0103341EA034100FB08F38B4207D969182C
S1134AB000F1FF3C17D28B4215D902382944C91A98
S1134AC040EA07473BE73746304609E70746E7E64B
S1134AD01846FBE64145ABD2B8EB020A69EB0E027D
S1134AE001381346A4E76046E9E7184695E76746A8
S1134AF0D1E781467CE702382C4447E7ACF1020C4D
S1134B002B442FE7384608E73746E9E6704700BFED
S1134B1008B5074B044613B10021AFF30080054BE1
S1134B201868836A03B198472046FDF760FF00BF09
S1134B3000000000C45C00008A892DE9F0410546AC
S1134B4010070C4658D44B68002B05DC0B6C002B6B
S1134B5002DC0020BDE8F081E66A002EF9D00023D3
S1134B6012F480522F68216A2B6032D0606DA389C1
S1134B705A0705D56368C01A636B0BB1236CC01A5E
S1134B8000230246E66A216A2846B047431CA389EB
S1134B9006D129681D2948D8294ACA40D60744D5D0
S1134BA000226260D9042269226004D5421C01D12A
S1134BB02B6803B96065616B2F600029C9D004F1CB
S1134BC04403994202D0284600F070F90020606343
S1134BD0C0E701232846B047411CC8D12B68002BED
S1134BE0C5D01D2B01D0162B01D12F60B1E7A389AD
S1134BF043F04003A381ADE70F69002FA9D09307C9
S1134C000E6808BF4B690F6018BF0023A6EB0708A6
S1134C108B60B8F1000F9CDD43463A46216AA66AD0
S1134C202846B047002806DCA38943F04003A3814B
S1134C304FF0FF308EE70744A8EB0008E9E700BF18
S1134C400100402038B50B6905460C46DBB118B1AC
S1134C5083690BB900F060F80C4B9C4209D16C6875
S1134C60B4F90C307BB121462846BDE83840FFF743
S1134C7063BF074B9C4201D1AC68F1E7054B9C42F2
S1134C8008BFEC68ECE7002038BD00BF845C00007E
S1134C90A45C0000645C0000002310B50446C0E975
S1134CA00033836081814366C281C0E90433836138
S1134CB0194608225C3000F0F0F8054B6362054B9E
S1134CC0A362054BE362054B2462236310BD00BF5E
S1134CD05157000073570000AB570000CF57000036
S1134CE0014900F085B800BF454C000070B54A1E6C
S1134CF0682555430E4605F1740100F025F9044674
S1134D0040B10021C0E900160C30A06005F1680232
S1134D1000F0C3F8204670BD836910B5044633BB68
S1134D20C0E912330365124B124A1B68826298422F
S1134D3004BF0123836100F01FF86060204600F087
S1134D401BF8A060204600F017F80022E060042160
S1134D506068FFF7A1FF01220921A068FFF79CFF0B
S1134D6002221221E068FFF797FF0123A36110BD1F
S1134D70C45C0000E14C0000F8B51B4B1E68B3692D
S1134D80074613B93046FFF7C7FF4836D6E9013462
S1134D90013B03D5336833B13668F7E7B4F90C50F7
S1134DA06DB16834F4E704213846FFF79FFF3060A3
S1134DB00028F1D10C233B6004462046F8BD0B4B80
S1134DC06566C4E90055A560C4E90335C4E9055521
S1134DD00822294604F15C0000F05FF8C4E90D558F
S1134DE0C4E91255E9E700BFC45C00000100FFFFFD
S1134DF02DE9F8438046894600F14804002614B999
S1134E003046BDE8F883D4E90175013F01D5246833
S1134E10F5E7AB89012B07D9B5F90E30013303D07F
S1134E2029464046C84706436835EEE770B50D4E3F
S1134E300D4CA41BA4100025A54209D10B4E0C4C0B
S1134E4000F0C4FEA41BA4100025A54205D170BD2A
S1134E5056F8253098470135EEE756F8253098473F
S1134E600135F2E78000002080000020800000204F
S1134E7084000020024B0146186800F065B800BFAA
S1134E801C00002010B5431E0A44914200D110BDFD
S1134E9011F8014B03F8014FF7E70244034693422C
S1134EA000D1704703F8011BF9E7000038B5054647
S1134EB0002945D051F8043C0C1F002BB8BFE4185E
S1134EC000F04EFE1F4A1368104633B96360146045
S1134ED02846BDE8384000F044BEA3420CD92168FE
S1134EE06218934204BF1A685B68636004BF521877
S1134EF022600460ECE713465A680AB1A242FAD968
S1134F0019685818A0420BD12068014458188242ED
S1134F101960DDD1106852685A6001441960D7E7FE
S1134F2002D90C232B60D3E7206821188A4204BFDE
S1134F3011685268626004BF091821605C60C7E7A9
S1134F4038BD00BFF014002070B5CD1C25F003055A
S1134F5008350C2D38BF0C25002D064601DBA9426F
S1134F6003D90C233360002070BD00F0F9FD214A01
S1134F701468214691B9204C23681BB9304600F0CF
S1134F801BFB20602946304600F016FB431C24D14D
S1134F900C233360304600F0E4FDE4E70B685B1B50
S1134FA018D40B2B0FD90B60CD50CC18304600F021
S1134FB0D8FD04F10B00231D20F00700C31AD3D041
S1134FC05A42E250D0E78C424B6816BF63601360CC
S1134FD00C46EBE70C464968CCE7C41C24F00304F8
S1134FE0A04205D0211A304600F0E6FA0130CFD0B5
S1134FF02560DBE7F0140020F41400209368013BE3
S1135000002B10B4936008DA9469A34201DB0A29E7
S113501003D15DF8044B00F0FBBB1368581C10600F
S1135020197008465DF8044B7047F8B506460F46FC
S11350301446D518AC4201D1002007E03A4614F8D2
S1135040011B3046FFF7DAFF431CF3D1F8BD000023
S11350502DE9F04F9DB00C4617460393064618B150
S113506083690BB9FFF758FE7B4B9C4257D1746898
S1135070A38918075DD52369002B5AD0002309930F
S113508020238DF8293030238DF82A304FF0010B7E
S1135090B846454615F8013B0BB1252B54D1B8EB66
S11350A0070A0BD053463A4621463046FFF7BDFF68
S11350B0013000F0C280099B5344099398F80030F2
S11350C0002B00F0BA8000234FF0FF32CDE9052316
S11350D0049307938DF853301A93A846052218F8C1
S11350E0011B5E4800F0ECFC049B78BBD90644BF6E
S11350F020228DF853201A0744BF2B228DF8532009
S11351002A782A2A2AD0079AA84600200A25414646
S113511011F8013B303B092B69D960B324E0504BB3
S11351209C4201D1B468A3E74E4B9C4208BFF4688B
S11351309EE72146304600F0CFFB00289ED04FF07A
S1135140FF301DB0BDE8F08FA846A2E7434A801A9D
S11351500BFA00F0184304904546BEE7039A111D6C
S113516012680391002A01DB079204E0524243F0E3
S113517002030792049398F800302E2B0ED198F86E
S113518001302A2B38D1039B1A1D1B680392002B74
S1135190B8BF4FF0FF3308F102080593324D98F879
S11351A000100322284600F08BFC40B14023401B32
S11351B003FA00F0049B034308F10108049398F8F0
S11351C000102A488DF82810062208F1010700F083
S11351D077FC002837D0264B1BBB039B073323F0F7
S11351E0070308330393099B4B44099350E705FBDA
S11351F00232012088468AE7002308F1010805935A
S113520019460A25404610F8012B303A092A03D9D9
S1135210002BC3D00591C1E705FB01210123804682
S1135220F0E703AB00932246124B04A93046AFF3D8
S11352300080B0F1FF3F8146D5D1A3895B063FF5DD
S11352407EAF09987DE703AB00932246094B04A97E
S1135250304600F087F8ECE7845C0000C85C00008E
S1135260A45C0000645C0000CE5C0000D25C000022
S1135270000000002B5000002DE9F04791461F4626
S11352808A680B69DDF820809342B8BF1346C9F8D9
S1135290003091F8432006460C4612B10133C9F898
S11352A000302368990642BFD9F800300233C9F8A8
S11352B00030256815F0060507D104F1190AE368E2
S11352C0D9F800209B1AAB4228DC94F843302268BA
S11352D0003318BF012392062DD404F1430239464A
S11352E03046C047013020D02368E568D9F8002053
S11352F003F00603042B08BFAD1AA36822690CBF90
S113530025EAE57500259342C4BF9B1AED184FF0BA
S113531000091A344D451AD1002008E001235246F1
S113532039463046C047013003D14FF0FF30BDE865
S1135330F0870135C3E7E1185A1C302081F8430097
S1135340224494F8451082F843100233C5E7012340
S1135350224639463046C0470130E6D009F10109FA
S1135360D8E700002DE9F04301F1430C0C46097E17
S113537085B06E291746064698460C9A00F0B3800D
S113538022D8632936D00AD8002900F0B9805829D8
S113539000F0838004F1420584F8421032E064296D
S11353A001D06929F6D120681368050603F10401C8
S11353B02AD51B681160002B03DA2D225B4284F886
S11353C043206F480A2239E0732900F09D8008D8F1
S11353D06F2920D07029DDD1236843F02003236096
S11353E003E0752917D07829D4D1782384F845307F
S11353F0644855E01368191D1B68116004F14205E7
S113540084F8423001238CE01B68116010F0400FD7
S113541018BF1BB2CFE713682568181D1060280653
S113542001D51B6802E06806FBD51B8854486F2928
S113543014BF0A220822002184F843106568A5607D
S1135440002DC0F29580216821F004012160002B19
S11354503DD1002D40F08E806546082A0BD123688B
S1135460DB0708D5236962689A42DEBF302305F85A
S1135470013C05F1FF35ACEB05032361CDF8008059
S11354803B4603AA21463046FFF7F6FE01304DD1D4
S11354904FF0FF3005B0BDE8F083394884F845107B
S11354A0136821681D1D1B6815600A060BD5CA0701
S11354B044BF41F0200121601BB9226822F0200280
S11354C022601022B7E74D0648BF9BB2EFE765465E
S11354D0B3FBF2F102FB1133C35C05F8013D0B464B
S11354E00029F5D1B9E7136825686169181D1060B2
S11354F028061B6801D5196002E06A06FBD51980ED
S1135500002323616546B9E71368191D11601D68FE
S113551062680021284600F0D3FA08B1401B60609D
S113552063682361002384F84330A7E723692A468C
S113553039463046C0470130AAD023689B0713D4AC
S1135540E068039B9842B8BF1846A3E701234A4684
S113555039463046C04701309AD00135E368039A92
S11355609B1AAB42F2DCEBE7002504F11909F5E7DD
S1135570002BACD1037884F8423004F142056CE787
S1135580D95C0000EA5C00000FB40A4B13B51C6838
S113559024B1A36913B92046FFF7BEFB05AB049AF7
S11355A0A16801932046FFF753FD02B0BDE8104007
S11355B004B070471C00002038B5064C0023054693
S11355C008462360FDF76CFA431C02D1236803B13B
S11355D02B6038BD7C150020EC46A0E8F05F4FF04E
S11355E000007047B0E8F05FE546080008BF0120FE
S11355F0704700BF2DE9F7431D46514B1E68044612
S11356000F46904626B1B36913B93046FFF784FBC1
S11356104C4B9C4252D17468B8F1020F06D0B8F1D9
S1135620010F00F28980002DC0F2868021463046A9
S1135630FFF708FB616B41B104F14403994202D0C6
S11356403046FFF733FC002363630023A3616360E8
S1135650A3891B0603D521693046FFF727FCA389DC
S113566023F44A6323F00303B8F1020FA3815DD04E
S113567001AB6A462146304600F0BEF9A3891843BF
S1135680A0812DBB009D2846FFF7F4FB07460028A8
S11356904ED1DDF80090A9453CD14FF0FF30A389ED
S11356A043F00203A3810023A36004F147032360B2
S11356B023610123636103B0BDE8F083224B9C4264
S11356C001D1B468A8E7214B9C4208BFF468A3E762
S11356D0002FD8D0B36913B93046FFF71DFBB8F1DA
S11356E0010F08BFA389276004BF43F00103A3810E
S11356F0A38913F00800C4E904751BD013F001005A
S113570018BF6D424FF000031DBFA360A56118468A
S1135710A560D0E74846FFF7ADFB07460028BCD09C
S1135720A38943F08003A3814D46D3E70020B6E765
S1135730A946F5E7A060BEE74FF0FF30BBE700BF26
S11357401C000020845C0000A45C0000645C000079
S113575010B50C46B1F90E1000F004FA0028ABBFE6
S1135760636DA3891B1823F48053ACBF6365A381C5
S113577010BD2DE9F0411F468B89DB0505460C461B
S1135780164605D502230022B1F90E1000F022F9C5
S1135790A389B4F90E1023F48053A38132463B4607
S11357A02846BDE8F04100F085B810B50C46B1F9C3
S11357B00E1000F00FF9431CA38915BF606523F494
S11357C0805343F48053A38118BFA38110BDB1F962
S11357D00E1000F0EFB8034613F8012B002AFBD19A
S11357E0181A0138704770B50139044602B970BD02
S11357F0234611F8015F03F8015B561E2DB91444CA
S1135800A342F4D003F8015BFAE71C463246EDE705
S1135810F8B50E461446054618B183690BB9FFF76F
S11358207BFA214B9C422AD16C68A369A360A389AB
S11358301A072ED5236963B323692068C01A6369E4
S1135840F6B28342374604DC21462846FFF7FAF9CC
S113585028BBA368013BA36023685A1C22601E7006
S113586063690130834204D0A389DB0719D50A2E6A
S113587017D121462846FFF7E5F990B10FE00B4B0D
S11358809C4201D1AC68D0E7094B9C4208BFEC684C
S1135890CBE72146284600F01FF80028CCD04FF073
S11358A0FF373846F8BD00BF845C0000A45C0000EC
S11358B0645C000038B5074C0546084611460022D2
S11358C022601A46FDF70CF9431C02D1236803B188
S11358D02B6038BD7C150020324B70B51D68064620
S11358E00C4625B1AB6913B92846FFF715FA2E4BC0
S11358F09C420FD16C68B4F90C309AB215072CD4C1
S1135900D00611D40922326043F04003A3814FF042
S1135910FF303EE0254B9C4201D1AC68EBE7244BC1
S11359209C4208BFEC68E6E7510712D5616B41B1B0
S113593004F14403994202D03046FFF7B7FA00233A
S11359406363A38923F02403A38100236360236991
S11359502360A38943F00803A38123694BB9A38976
S113596003F42073B3F5007F03D02146304600F0E2
S113597067F8A28912F001030CD00023A3606369C5
S11359805B42A361236953B9B4F90C3013F080006E
S1135990BAD170BD920758BF6369A360F2E70020D3
S11359A0F7E700BF1C000020845C0000A45C00003A
S11359B0645C000038B5064C0023054608462360A5
S11359C0FDF70AF8431C02D1236803B12B6038BDEC
S11359D07C15002038B5074C0546084611460022C0
S11359E022601A46FDF723F8431C02D1236803B151
S11359F02B6038BD7C15002070B50E46B1F90E1031
S1135A00002996B014461D4607DA00232B60B3899B
S1135A101A0610D44FF480630EE06A4600F0B4F81E
S1135A200028F2DB019A02F47042A2F500535A42B4
S1135A305A412A60EEE740230020236016B070BD6F
S1135A408B8973B59D0706460C4607D504F14703B9
S1135A50236023610123636102B070BD01AB6A4618
S1135A60FFF7CAFF009905463046FFF76DFA48B9BB
S1135A70B4F90C309A05EFD423F0030343F0020386
S1135A80A381E3E70D4BB362A389206043F0800355
S1135A90A381009B6361019B20615BB1B4F90E108B
S1135AA0304600F083F828B1A38923F0030343F0C0
S1135AB00103A381A3891D43A581CDE7E14C000027
S1135AC001F0FF01102A2BDB10F0070F08D010F8AB
S1135AD0013B013A8B422DD010F0070F42B3F6D1AF
S1135AE0F0B441EA012141EA014122F007047FF0C8
S1135AF000070023F0E80256083C85EA010586EA1F
S1135B00010685FA47F5A3FA87F586FA47F6A5FA5A
S1135B1087F68EB9EED1F0BC01F0FF0102F0070266
S1135B2032B110F8013B013A83EA010313B1F8D111
S1135B300020704701387047002D06BF35460338F2
S1135B40073815F0010F07D1013015F4807F02BF2B
S1135B50013015F4C03F0130F0BC0138704700BF7C
S1135B607047704738B5074C054608461146002271
S1135B7022601A46FCF768FF431C02D1236803B174
S1135B802B6038BD7C15002038B5074C0023054632
S1135B90084611462360FCF72FFF431C02D12368FB
S1135BA003B12B6038BD00BF7C15002038B5064C0E
S1135BB00023054608462360FCF72EFF431C02D150
S1135BC0236803B12B6038BD7C150020F8B500BFF5
S1135BD0F8BC08BC9E467047F8B500BFF8BC08BCCA
S1135BE09E4670472E0000007641737365727443BD
S1135BF0616C6C65642025732C20256C640A00009C
S1135C000000000049444C450000000009256309D8
S1135C1025750925750925750D0A0000546D722036
S1135C20537663004C6F6767696E67000A00000073
S1135C304E6F6E6500000000256C7520256C752084
S1135C405B25735D200000000500000000000000DB
S1135C5000C2010000050000001000000000000068
S1135C600000000000000000000000000000000030
S1135C700000000000000000000000000000000020
S1135C800000000000000000000000000000000010
S1135C900000000000000000000000000000000000
S1135CA000000000000000000000000000000000F0
S1135CB000000000000000000000000000000000E0
S1135CC00000000020000020232D302B2000686CF1
S1135CD04C0065666745464700303132333435360B
S1135CE03738394142434445460030313233343544
